:100000000C9462000C948A000C948A000C948A0070
:100010000C948A000C948A000C948A000C948A0038
:100020000C948A000C948A000C948A000C948A0028
:100030000C948A000C948A000C948A000C948A0018
:100040000C94AB040C948A000C948A000C948A00E3
:100050000C948A000C948A000C948A000C948A00F8
:100060000C948A000C948A000000000024002700F1
:100070002A0000000000250028002B0004040404CE
:100080000404040402020202020203030303030342
:10009000010204081020408001020408102001021F
:1000A00004081020000000002300260029000000A2
:1000B0000008000201000003040700000000000027
:1000C0000000C50611241FBECFEFD8E0DEBFCDBFB4
:1000D00011E0A0E0B1E0E2EAF1E102C005900D928A
:1000E000AA3BB107D9F721E0AAEBB1E001C01D920C
:1000F000AE3EB207E1F710E0C2E6D0E004C02197BF
:10010000FE010E94C408C136D107C9F70E94F50458
:100110000C94CF080C940000CF92DF92EF92FF92E4
:10012000CF93DF93B091CA01882311F0AB2F01C0A8
:10013000A0E08091CB0190E0880F991F8C559F4FD4
:10014000C090D001D090D101E090D201F090D301C5
:1001500020E030E0FC01C591D491E881EB23A901B6
:1001600060E070E0EA130CC02F5F3F4F4C155D0557
:100170006E057F0578F33FEF2FEF8FEF9FEF03C002
:10018000322F252FCB01632F722FDF91CF91FF905C
:10019000EF90DF90CF90089590E0FC01E255FF4F83
:1001A0002491FC01E057FF4F3491FC01E458FF4FCC
:1001B000E491EE2309F43CC0222339F1233091F07D
:1001C00038F42130A9F0223001F584B58F7D12C0BA
:1001D000273091F02830A1F02430B9F480918000CC
:1001E0008F7D03C0809180008F77809380000DC049
:1001F00084B58F7784BD09C08091B0008F7703C02C
:100200008091B0008F7D8093B000F0E0EE0FFF1F73
:10021000EE58FF4FA591B4919FB7F894611104C0B7
:100220008C913095382302C0EC913E2B3C939FBFBC
:100230000895CF93DF9390E0FC01E057FF4F2491A6
:10024000FC01E458FF4F8491882361F190E0880F0E
:10025000991FFC01E859FF4FC591D491FC01EE585C
:10026000FF4FA591B491611109C09FB7F89488819F
:10027000209582238883EC912E230BC0623061F499
:100280009FB7F8948881322F309583238883EC912F
:100290002E2B2C939FBF06C08FB7F894E8812E2B8E
:1002A00028838FBFDF91CF910895CF93DF93EC0127
:1002B00061E089E00E941901209711F460E004C018
:1002C000CF3FD10531F461E089E0DF91CF910C940B
:1002D000CC00E7EBF0E0E491E330F9F048F4E130F2
:1002E000B9F0E230A1F584B5806284BDC8BD34C0E8
:1002F000E730E9F0E83019F1E43049F58091800009
:10030000806280938000D0938B00C0938A0024C0C9
:1003100084B5806884BDC7BD1FC08091800080689F
:1003200080938000D0938900C093880015C080918D
:10033000B00080688093B000C093B3000DC080917E
:10034000B00080628093B000C093B40005C0C03894
:10035000D1050CF0B8CFB2CFDF91CF9108953FB760
:10036000F8948091BB019091BC01A091BD01B09126
:10037000BE0126B5A89B05C02F3F19F00196A11D0F
:10038000B11D3FBFBA2FA92F982F8827820F911D2B
:10039000A11DB11DBC01CD0142E0660F771F881F72
:1003A000991F4A95D1F708958F929F92AF92BF926D
:1003B000CF92DF92EF92FF926B017C010E94AF011E
:1003C0004B015C01C114D104E104F104F1F00E947D
:1003D000AF01DC01CB0188199909AA09BB09883E44
:1003E0009340A105B10570F321E0C21AD108E108DC
:1003F000F10888EE880E83E0981EA11CB11CC11480
:10040000D104E104F10419F7DDCFFF90EF90DF9004
:10041000CF90BF90AF909F908F900895CF92DF9232
:10042000EF92FF920F931F93CF93DF93CDB7DEB779
:10043000C054D1400FB6F894DEBF0FBECDBF2FB76A
:10044000F8948091BF019091C001A091C101B09139
:10045000C2012FBF4091CC015091CD016091CE01DE
:100460007091CF018C019D01041B150B260B370BDE
:10047000B901A801403D57406105710518F480910C
:10048000D401CAC08093CC019093CD01A093CE013A
:10049000B093CF011092C7011092C6011092C5010E
:1004A0001092C4011092C30162E08091C8010E94C1
:1004B000190161E070E080E090E00E94D40161E009
:1004C0008091C8010E94190160E08091C8010E94DA
:1004D000CC008091C9018551823028F48BE291E1F2
:1004E0000197F1F706C064E170E080E090E00E94BF
:1004F000D40162E08091C8010E9419018091D50168
:1005000090E08230910538F0880F991F880F991F6D
:1005100005970197F1F7F89480E00E948C006F3FF7
:100520007F4F8F4F9F4F21F41092D401789441C098
:1005300081E00E948C006F3F7F4F8F4F9F4FA1F350
:100540008E010F5F1F4F6E018FEBC81A8EEFD80A16
:10055000780180E00E948C00F701608371838283C0
:10056000938381E00E948C00F70164837583868306
:100570009783F8E0EF0EF11CEC14FD0451F778942A
:1005800020E030E0F801C080D180E280F380448137
:10059000558166817781FFEFCF16DF06EF06FF06F4
:1005A00031F04F3F8FEF58076807780721F410921A
:1005B000D40180E031C0F90183E0F595E7958A9593
:1005C000E1F7ED53FE4F8081880FC416D506E6068D
:1005D000F70608F4816080832F5F3F4F085F1F4F4D
:1005E0002832310579F62091C70130E04091C301EE
:1005F0008091C40190E0840F911D4091C501840F4A
:10060000911D4091C601840F911D99272817390724
:1006100071F681E08093D401C05CDE4F0FB6F89490
:10062000DEBF0FBECDBFDF91CF911F910F91FF9025
:10063000EF90DF90CF900895CF92DF92EF92FF92EC
:100640000F931F93CF93DF936C017A018B01C0E06E
:10065000D0E0CE15DF0581F0D8016D918D01D60176
:10066000ED91FC910190F081E02DC6010995892B57
:1006700011F02196EECF7E01C701DF91CF911F913E
:100680000F91FF90EF90DF90CF900895CF93DF937D
:10069000EC0160E08E810E94CC0061E08E810E94BE
:1006A000CC0060E08E810E94CC008BE891E0019745
:1006B000F1F7DF91CF910895CF92DF92EF92FF9201
:1006C0000F931F93CF93DF936C017C0187E0E80EBB
:1006D000F11CC0E0D0E0062F10E0B8010C2E02C0E3
:1006E000759567950A94E2F76170F70181917F0132
:1006F0000E94CC002196C430D10579F7C601DF9164
:10070000CF911F910F91FF90EF90DF90CF900C94BD
:100710004603CF92DF92EF92FF920F931F93CF93F6
:10072000DF93EC01F62E642F8C810E94CC008D812A
:100730008F3F19F060E00E94CC008F850F2D10E0F4
:1007400084FF25C06E0187E0C80ED11CE12CF12C7E
:10075000B8010E2C02C0759567950A94E2F7617096
:10076000F60181916F010E94CC00FFEFEF1AFF0AA2
:1007700088E0E816F10461F7CE01DF91CF911F9177
:100780000F91FF90EF90DF90CF900C944603B8014B
:1007900084E0759567958A95E1F7CE010E945C0328
:1007A0006F2DCE01DF91CF911F910F91FF90EF90B0
:1007B000DF90CF900C945C0340E0682F86ED91E0D1
:1007C0000C94890381E00E94DC038BE39FE1019795
:1007D000F1F70895CF93DF93823028F09091E501EF
:1007E00098609093E5018093E9011092EA0180E41A
:1007F0008093EB0180E18093EC0180E58093ED0133
:1008000061E08091DA010E9419018091DB018F3F44
:1008100019F061E00E94190161E08091DC010E9401
:100820001901C6EDD1E09E01265D31408091E501C0
:1008300084FD03C084E090E002C088E090E021964F
:10084000281739072CF461E08E810E941901EBCF43
:100850008BE39DE00197F1F760E08091DA010E945F
:10086000CC0060E08091DC010E94CC008091DB0133
:100870008F3F19F060E00E94CC008091E50184FD7B
:1008800020C063E086ED91E00E945C03CBE4D6E4F7
:10089000CE010197F1F763E086ED91E00E945C03E1
:1008A0002197F1F763E086ED91E00E945C0383E518
:1008B00092E00197F1F762E086ED91E00E945C031F
:1008C00015C080620E94DC038BE496E40197F1F787
:1008D0008091E50180620E94DC0383E592E001974C
:1008E000F1F78091E50180620E94DC038091E501CF
:1008F00080620E94DC0384E08093E6018CE00E9429
:10090000DC030E94E20382E08093E70186E0DF914E
:10091000CF910C94DC0341E00E94890381E090E0D8
:100920000895089580E090E00895009769F0FC0133
:1009300001900020E9F73197AF01481B590BBC012A
:1009400086ED91E00C941C0380E090E008950C94F7
:1009500095040E94CA081F920F920FB60F9211249D
:100960002F933F938F939F93AF93BF938091BF013A
:100970009091C001A091C101B091C2013091BA0122
:1009800023E0230F2D3720F40196A11DB11D05C0D2
:1009900026E8230F0296A11DB11D2093BA01809372
:1009A000BF019093C001A093C101B093C201809197
:1009B000BB019091BC01A091BD01B091BE01019617
:1009C000A11DB11D8093BB019093BC01A093BD01FB
:1009D000B093BE01BF91AF919F918F913F912F91A5
:1009E0000F900FBE0F901F901895CF93DF93CDB748
:1009F000DEB7A1970FB6F894DEBF0FBECDBF7894D7
:100A000084B5826084BD84B5816084BD85B5826013
:100A100085BD85B5816085BD80916E0081608093C4
:100A20006E0010928100809181008260809381002D
:100A3000809181008160809381008091800081603D
:100A4000809380008091B10084608093B100809198
:100A5000B00081608093B00080917A0084608093C0
:100A60007A0080917A00826080937A0080917A0087
:100A7000816080937A0080917A00806880937A0008
:100A80001092C10082E00E94EA0388E40E94DC0325
:100A900000E011E038E0E32E31E0F32EF80161913F
:100AA0008F0186ED91E00E948B04E016F106B1F70C
:100AB0000E94E20384E191E00E94A704E091E90131
:100AC000E23010F4E15001C0E1E0F0E0EA52FE4F04
:100AD000848980680E94DC0383E291E00E94A7047D
:100AE00060ED77E080E090E00E94D4018FEF90E02D
:100AF0000E9455010E94E20381E391E00E94A70455
:100B000060ED77E080E090E00E94D4019AE0492E09
:100B1000512C612C712C20E0A22E20E0B22E0E94DC
:100B20000E02882309F46DC08091C9018C3009F44C
:100B300046C018F48B30D1F064C08551823008F083
:100B400060C01091C501612F6F7770E0762F662726
:100B50008091C601682B80E090E00E94A7072DECF1
:100B60003CEC4CEC5DE30E94350847C06091C50148
:100B700070E080E090E00E94A7076B017C0110917B
:100B8000C60117FF0AC09B01AC0160E070E080E87D
:100B90009FEB0E9404076B017C01612F6F7070E076
:100BA00080E090E00E94A9072DEC3CEC4CEC5DE36A
:100BB0000E943508A70196010E94050726C01091E2
:100BC000C5016091C6016F7070E080E090E00E9406
:100BD000A9072DEC3CEC4CEC5DE30E9435086B0161
:100BE0007C01612F70E080E090E00E94A7079B01EC
:100BF000AC01C701B6010E94050717FF06C0905857
:100C000004C060E070E080EC9FE79B01AC010E94B3
:100C100005070E9471076B017C018B01E1E0809167
:100C2000E9018111E0E0E195F0E0EA52FE4F8489AC
:100C300080680E94DC038BE391E00E94A7040D2CE6
:100C4000000CEE08FF08F7FE21C041E06DE286EDE2
:100C500091E00E94890322273327A9012C193D091D
:100C60004E095F0919A2CE0181967C01CA01B90122
:100C7000A30192010E94A208605DF70162937F01C7
:100C8000211531054105510589F715C0A7019601C8
:100C900019A2CE0181967C01CA01B901A30192017A
:100CA0000E94A208605DF70162937F012115310562
:100CB0004105510589F7C7010E94950461E086ED61
:100CC00091E00E948B0488E491E00E94A704E091E7
:100CD000E901E23010F4E15001C0E1E0F0E0EA5255
:100CE000FE4F848980680E94DC030A3111053CF4C0
:100CF00080E090E00E9455018AE491E031C00A3121
:100D0000110539F483E390E00E9455018EE591E0EE
:100D100027C00C31110539F486E690E00E94550198
:100D200080E791E01DC00E31110539F489E990E0AA
:100D30000E94550182E891E013C00032110539F498
:100D40008CEC90E00E94550184E991E009C00232E8
:100D5000110574F08FEF90E00E94550187EA91E051
:100D60000E94A70464E670E080E090E00E94D40155
:100D700060ED77E080E090E00E94D401A114B1041E
:100D800009F4CDCE0E940000CACEE6EDF1E0138258
:100D900012828CE091E09183808387E084838FEFDF
:100DA000858386E0868385E0878384E0808783E08F
:100DB000818782E0828713861486158616861786B9
:100DC00081E00E94EA03A3ECB1E08DE015968C93DC
:100DD00015978BE016968C931697EDE9F0E0E49169
:100DE0001796EC931797E9E8F0E0E4911896EC93E6
:100DF000189740E85EE360E070E01D964D935D93C8
:100E00006D937C93509708955058BB27AA270E9452
:100E10001C070C94FB070E94ED0738F00E94F407B2
:100E200020F039F49F3F19F426F40C94EA070EF4ED
:100E3000E095E7FB0C94E407E92F0E940C0858F3B7
:100E4000BA17620773078407950720F079F4A6F5AF
:100E50000C942E080EF4E0950B2EBA2FA02D0B014A
:100E6000B90190010C01CA01A0011124FF27591BEF
:100E700099F0593F50F4503E68F11A16F040A22FF5
:100E8000232F342F4427585FF3CF46953795279566
:100E9000A795F0405395C9F77EF41F16BA0B620B65
:100EA000730B840BBAF09150A1F0FF0FBB1F661FAC
:100EB000771F881FC2F70EC0BA0F621F731F841FEF
:100EC00048F4879577956795B795F7959E3F08F015
:100ED000B0CF9395880F08F09927EE0F97958795D7
:100EE00008950E9478076894B1110C942F08089512
:100EF0000E94140888F09F5798F0B92F9927B7518E
:100F0000B0F0E1F0660F771F881F991F1AF0BA95AD
:100F1000C9F714C0B13091F00E942E08B1E00895D5
:100F20000C942E08672F782F8827B85F39F0B93FC7
:100F3000CCF3869577956795B395D9F73EF4909560
:100F40008095709561957F4F8F4F9F4F0895E894DE
:100F500009C097FB3EF490958095709561957F4F01
:100F60008F4F9F4F9923A9F0F92F96E9BB279395AF
:100F7000F695879577956795B795F111F8CFFAF4BF
:100F8000BB0F11F460FF1BC06F5F7F4F8F4F9F4FF0
:100F900016C0882311F096E911C0772321F09EE84E
:100FA000872F762F05C0662371F096E8862F70E0B4
:100FB00060E02AF09A95660F771F881FDAF7880F8E
:100FC0009695879597F9089597F99F6780E870E05F
:100FD00060E008959FEF80EC089500240A941616AF
:100FE000170618060906089500240A941216130617
:100FF000140605060895092E0394000C11F48823A5
:1010000052F0BB0F40F4BF2B11F460FF04C06F5FC0
:101010007F4F8F4F9F4F089557FD9058440F551F96
:1010200059F05F3F71F04795880F97FB991F61F06A
:101030009F3F79F087950895121613061406551FE1
:10104000F2CF4695F1DF08C0161617061806991F4D
:10105000F1CF86957105610508940895E894BB2742
:1010600066277727CB0197F908950E9448080C94CA
:10107000FB070E94ED0738F00E94F40720F095234B
:1010800011F00C94E4070C94EA0711240C942F0837
:101090000E940C0870F3959FC1F3950F50E0551F07
:1010A000629FF001729FBB27F00DB11D639FAA27BD
:1010B000F00DB11DAA1F649F6627B00DA11D661F0C
:1010C000829F2227B00DA11D621F739FB00DA11D2D
:1010D000621F839FA00D611D221F749F3327A00DE7
:1010E000611D231F849F600D211D822F762F6A2F83
:1010F00011249F5750409AF0F1F088234AF0EE0FE8
:10110000FF1FBB1F661F771F881F91505040A9F714
:101110009E3F510580F00C94E4070C942F085F3F2C
:10112000E4F3983ED4F3869577956795B795F79550
:10113000E7959F5FC1F7FE2B880F911D96958795C8
:1011400097F90895A1E21A2EAA1BBB1BFD010DC041
:10115000AA1FBB1FEE1FFF1FA217B307E407F50767
:1011600020F0A21BB30BE40BF50B661F771F881F43
:10117000991F1A9469F760957095809590959B01D9
:10118000AC01BD01CF010895EE0FFF1F0590F49152
:10119000E02D099481E090E0F8940C94CF08F89445
:0211A000FFCF7F
:1011A2000303000000000000000000008B041C0389
:1011B2009204910420202046414E2053504545443C
:1011C2002020002020434F4E54524F4C4C45522079
:1011D200005354415254494E47200054656D706586
:1011E2007261747572653A00430046616E204F4623
:1011F2004620202020202020202020202000466180
:101202006E2053706565643A20323025202020001C
:1012120046616E2053706565643A20343025202083
:10122200200046616E2053706565643A2036302591
:101232002020200046616E2053706565643A203894
:101242003025202020200046616E205370656564A1
:0A1252003A20313030252020200022
:00000001FF
